{
  "_format": "hh-sol-artifact-1",
  "contractName": "GameToken",
  "sourceName": "contracts/GameToken.sol",
  "abi": [
    {
      "inputs": [],
      "stateMutability": "nonpayable",
      "type": "constructor"
    },
    {
      "inputs": [
        {
          "internalType": "address",
          "name": "spender",
          "type": "address"
        },
        {
          "internalType": "uint256",
          "name": "allowance",
          "type": "uint256"
        },
        {
          "internalType": "uint256",
          "name": "needed",
          "type": "uint256"
        }
      ],
      "name": "ERC20InsufficientAllowance",
      "type": "error"
    },
    {
      "inputs": [
        {
          "internalType": "address",
          "name": "sender",
          "type": "address"
        },
        {
          "internalType": "uint256",
          "name": "balance",
          "type": "uint256"
        },
        {
          "internalType": "uint256",
          "name": "needed",
          "type": "uint256"
        }
      ],
      "name": "ERC20InsufficientBalance",
      "type": "error"
    },
    {
      "inputs": [
        {
          "internalType": "address",
          "name": "approver",
          "type": "address"
        }
      ],
      "name": "ERC20InvalidApprover",
      "type": "error"
    },
    {
      "inputs": [
        {
          "internalType": "address",
          "name": "receiver",
          "type": "address"
        }
      ],
      "name": "ERC20InvalidReceiver",
      "type": "error"
    },
    {
      "inputs": [
        {
          "internalType": "address",
          "name": "sender",
          "type": "address"
        }
      ],
      "name": "ERC20InvalidSender",
      "type": "error"
    },
    {
      "inputs": [
        {
          "internalType": "address",
          "name": "spender",
          "type": "address"
        }
      ],
      "name": "ERC20InvalidSpender",
      "type": "error"
    },
    {
      "inputs": [
        {
          "internalType": "address",
          "name": "owner",
          "type": "address"
        }
      ],
      "name": "OwnableInvalidOwner",
      "type": "error"
    },
    {
      "inputs": [
        {
          "internalType": "address",
          "name": "account",
          "type": "address"
        }
      ],
      "name": "OwnableUnauthorizedAccount",
      "type": "error"
    },
    {
      "anonymous": false,
      "inputs": [
        {
          "indexed": true,
          "internalType": "address",
          "name": "owner",
          "type": "address"
        },
        {
          "indexed": true,
          "internalType": "address",
          "name": "spender",
          "type": "address"
        },
        {
          "indexed": false,
          "internalType": "uint256",
          "name": "value",
          "type": "uint256"
        }
      ],
      "name": "Approval",
      "type": "event"
    },
    {
      "anonymous": false,
      "inputs": [
        {
          "indexed": true,
          "internalType": "address",
          "name": "to",
          "type": "address"
        },
        {
          "indexed": false,
          "internalType": "uint256",
          "name": "amount",
          "type": "uint256"
        }
      ],
      "name": "Minted",
      "type": "event"
    },
    {
      "anonymous": false,
      "inputs": [
        {
          "indexed": true,
          "internalType": "address",
          "name": "previousOwner",
          "type": "address"
        },
        {
          "indexed": true,
          "internalType": "address",
          "name": "newOwner",
          "type": "address"
        }
      ],
      "name": "OwnershipTransferred",
      "type": "event"
    },
    {
      "anonymous": false,
      "inputs": [
        {
          "indexed": true,
          "internalType": "address",
          "name": "from",
          "type": "address"
        },
        {
          "indexed": true,
          "internalType": "address",
          "name": "to",
          "type": "address"
        },
        {
          "indexed": false,
          "internalType": "uint256",
          "name": "value",
          "type": "uint256"
        }
      ],
      "name": "Transfer",
      "type": "event"
    },
    {
      "inputs": [
        {
          "internalType": "address",
          "name": "owner",
          "type": "address"
        },
        {
          "internalType": "address",
          "name": "spender",
          "type": "address"
        }
      ],
      "name": "allowance",
      "outputs": [
        {
          "internalType": "uint256",
          "name": "",
          "type": "uint256"
        }
      ],
      "stateMutability": "view",
      "type": "function"
    },
    {
      "inputs": [
        {
          "internalType": "address",
          "name": "spender",
          "type": "address"
        },
        {
          "internalType": "uint256",
          "name": "value",
          "type": "uint256"
        }
      ],
      "name": "approve",
      "outputs": [
        {
          "internalType": "bool",
          "name": "",
          "type": "bool"
        }
      ],
      "stateMutability": "nonpayable",
      "type": "function"
    },
    {
      "inputs": [
        {
          "internalType": "address",
          "name": "account",
          "type": "address"
        }
      ],
      "name": "balanceOf",
      "outputs": [
        {
          "internalType": "uint256",
          "name": "",
          "type": "uint256"
        }
      ],
      "stateMutability": "view",
      "type": "function"
    },
    {
      "inputs": [],
      "name": "decimals",
      "outputs": [
        {
          "internalType": "uint8",
          "name": "",
          "type": "uint8"
        }
      ],
      "stateMutability": "view",
      "type": "function"
    },
    {
      "inputs": [
        {
          "internalType": "address",
          "name": "to",
          "type": "address"
        },
        {
          "internalType": "uint256",
          "name": "amount",
          "type": "uint256"
        }
      ],
      "name": "mint",
      "outputs": [],
      "stateMutability": "nonpayable",
      "type": "function"
    },
    {
      "inputs": [],
      "name": "name",
      "outputs": [
        {
          "internalType": "string",
          "name": "",
          "type": "string"
        }
      ],
      "stateMutability": "view",
      "type": "function"
    },
    {
      "inputs": [],
      "name": "owner",
      "outputs": [
        {
          "internalType": "address",
          "name": "",
          "type": "address"
        }
      ],
      "stateMutability": "view",
      "type": "function"
    },
    {
      "inputs": [],
      "name": "renounceOwnership",
      "outputs": [],
      "stateMutability": "nonpayable",
      "type": "function"
    },
    {
      "inputs": [
        {
          "internalType": "address",
          "name": "_store",
          "type": "address"
        }
      ],
      "name": "setTokenStore",
      "outputs": [],
      "stateMutability": "nonpayable",
      "type": "function"
    },
    {
      "inputs": [],
      "name": "symbol",
      "outputs": [
        {
          "internalType": "string",
          "name": "",
          "type": "string"
        }
      ],
      "stateMutability": "view",
      "type": "function"
    },
    {
      "inputs": [],
      "name": "tokenStore",
      "outputs": [
        {
          "internalType": "address",
          "name": "",
          "type": "address"
        }
      ],
      "stateMutability": "view",
      "type": "function"
    },
    {
      "inputs": [],
      "name": "totalSupply",
      "outputs": [
        {
          "internalType": "uint256",
          "name": "",
          "type": "uint256"
        }
      ],
      "stateMutability": "view",
      "type": "function"
    },
    {
      "inputs": [
        {
          "internalType": "address",
          "name": "to",
          "type": "address"
        },
        {
          "internalType": "uint256",
          "name": "value",
          "type": "uint256"
        }
      ],
      "name": "transfer",
      "outputs": [
        {
          "internalType": "bool",
          "name": "",
          "type": "bool"
        }
      ],
      "stateMutability": "nonpayable",
      "type": "function"
    },
    {
      "inputs": [
        {
          "internalType": "address",
          "name": "from",
          "type": "address"
        },
        {
          "internalType": "address",
          "name": "to",
          "type": "address"
        },
        {
          "internalType": "uint256",
          "name": "value",
          "type": "uint256"
        }
      ],
      "name": "transferFrom",
      "outputs": [
        {
          "internalType": "bool",
          "name": "",
          "type": "bool"
        }
      ],
      "stateMutability": "nonpayable",
      "type": "function"
    },
    {
      "inputs": [
        {
          "internalType": "address",
          "name": "newOwner",
          "type": "address"
        }
      ],
      "name": "transferOwnership",
      "outputs": [],
      "stateMutability": "nonpayable",
      "type": "function"
    }
  ],
  "bytecode": "0x60806040523480156200001157600080fd5b50336040518060400160405280600981526020017f47616d65546f6b656e00000000000000000000000000000000000000000000008152506040518060400160405280600281526020017f4754000000000000000000000000000000000000000000000000000000000000815250816003908162000090919062000472565b508060049081620000a2919062000472565b505050600073ffffffffffffffffffffffffffffffffffffffff168173ffffffffffffffffffffffffffffffffffffffff16036200011a5760006040517f1e4fbdf70000000000000000000000000000000000000000000000000000000081526004016200011191906200059e565b60405180910390fd5b6200012b816200013260201b60201c565b50620005bb565b6000600560009054906101000a900473ffffffffffffffffffffffffffffffffffffffff16905081600560006101000a81548173ffffffffffffffffffffffffffffffffffffffff021916908373ffffffffffffffffffffffffffffffffffffffff1602179055508173ffffffffffffffffffffffffffffffffffffffff168173ffffffffffffffffffffffffffffffffffffffff167f8be0079c531659141344cd1fd0a4f28419497f9722a3daafe3b4186f6b6457e060405160405180910390a35050565b600081519050919050565b7f4e487b7100000000000000000000000000000000000000000000000000000000600052604160045260246000fd5b7f4e487b7100000000000000000000000000000000000000000000000000000000600052602260045260246000fd5b600060028204905060018216806200027a57607f821691505b60208210810362000290576200028f62000232565b5b50919050565b60008190508160005260206000209050919050565b60006020601f8301049050919050565b600082821b905092915050565b600060088302620002fa7fffffffffffffffffffffffffffffffffffffffffffffffffffffffffffffffff82620002bb565b620003068683620002bb565b95508019841693508086168417925050509392505050565b6000819050919050565b6000819050919050565b6000620003536200034d62000347846200031e565b62000328565b6200031e565b9050919050565b6000819050919050565b6200036f8362000332565b620003876200037e826200035a565b848454620002c8565b825550505050565b600090565b6200039e6200038f565b620003ab81848462000364565b505050565b5b81811015620003d357620003c760008262000394565b600181019050620003b1565b5050565b601f8211156200042257620003ec8162000296565b620003f784620002ab565b8101602085101562000407578190505b6200041f6200041685620002ab565b830182620003b0565b50505b505050565b600082821c905092915050565b6000620004476000198460080262000427565b1980831691505092915050565b600062000462838362000434565b9150826002028217905092915050565b6200047d82620001f8565b67ffffffffffffffff81111562000499576200049862000203565b5b620004a5825462000261565b620004b2828285620003d7565b600060209050601f831160018114620004ea5760008415620004d5578287015190505b620004e1858262000454565b86555062000551565b601f198416620004fa8662000296565b60005b828110156200052457848901518255600182019150602085019450602081019050620004fd565b8683101562000544578489015162000540601f89168262000434565b8355505b6001600288020188555050505b505050505050565b600073ffffffffffffffffffffffffffffffffffffffff82169050919050565b6000620005868262000559565b9050919050565b620005988162000579565b82525050565b6000602082019050620005b560008301846200058d565b92915050565b6113af80620005cb6000396000f3fe608060405234801561001057600080fd5b50600436106100f55760003560e01c8063619306301161009757806395d89b411161006657806395d89b4114610262578063a9059cbb14610280578063dd62ed3e146102b0578063f2fde38b146102e0576100f5565b806361930630146101ec57806370a082311461020a578063715018a61461023a5780638da5cb5b14610244576100f5565b806323b872dd116100d357806323b872dd146101665780632b6e293f14610196578063313ce567146101b257806340c10f19146101d0576100f5565b806306fdde03146100fa578063095ea7b31461011857806318160ddd14610148575b600080fd5b6101026102fc565b60405161010f9190610f97565b60405180910390f35b610132600480360381019061012d9190611052565b61038e565b60405161013f91906110ad565b60405180910390f35b6101506103b1565b60405161015d91906110d7565b60405180910390f35b610180600480360381019061017b91906110f2565b6103bb565b60405161018d91906110ad565b60405180910390f35b6101b060048036038101906101ab9190611145565b6103ea565b005b6101ba610436565b6040516101c7919061118e565b60405180910390f35b6101ea60048036038101906101e59190611052565b61043f565b005b6101f461052b565b60405161020191906111b8565b60405180910390f35b610224600480360381019061021f9190611145565b610551565b60405161023191906110d7565b60405180910390f35b610242610599565b005b61024c6105ad565b60405161025991906111b8565b60405180910390f35b61026a6105d7565b6040516102779190610f97565b60405180910390f35b61029a60048036038101906102959190611052565b610669565b6040516102a791906110ad565b60405180910390f35b6102ca60048036038101906102c591906111d3565b61068c565b6040516102d791906110d7565b60405180910390f35b6102fa60048036038101906102f59190611145565b610713565b005b60606003805461030b90611242565b80601f016020809104026020016040519081016040528092919081815260200182805461033790611242565b80156103845780601f1061035957610100808354040283529160200191610384565b820191906000526020600020905b81548152906001019060200180831161036757829003601f168201915b5050505050905090565b600080610399610799565b90506103a68185856107a1565b600191505092915050565b6000600254905090565b6000806103c6610799565b90506103d38582856107b3565b6103de858585610848565b60019150509392505050565b6103f261093c565b80600660006101000a81548173ffffffffffffffffffffffffffffffffffffffff021916908373ffffffffffffffffffffffffffffffffffffffff16021790555050565b60006012905090565b600660009054906101000a900473ffffffffffffffffffffffffffffffffffffffff1673ffffffffffffffffffffffffffffffffffffffff163373ffffffffffffffffffffffffffffffffffffffff16146104cf576040517f08c379a00000000000000000000000000000000000000000000000000000000081526004016104c6906112bf565b60405180910390fd5b6104d982826109c3565b8173ffffffffffffffffffffffffffffffffffffffff167f30385c845b448a36257a6a1716e6ad2e1bc2cbe333cde1e69fe849ad6511adfe8260405161051f91906110d7565b60405180910390a25050565b600660009054906101000a900473ffffffffffffffffffffffffffffffffffffffff1681565b60008060008373ffffffffffffffffffffffffffffffffffffffff1673ffffffffffffffffffffffffffffffffffffffff168152602001908152602001600020549050919050565b6105a161093c565b6105ab6000610a45565b565b6000600560009054906101000a900473ffffffffffffffffffffffffffffffffffffffff16905090565b6060600480546105e690611242565b80601f016020809104026020016040519081016040528092919081815260200182805461061290611242565b801561065f5780601f106106345761010080835404028352916020019161065f565b820191906000526020600020905b81548152906001019060200180831161064257829003601f168201915b5050505050905090565b600080610674610799565b9050610681818585610848565b600191505092915050565b6000600160008473ffffffffffffffffffffffffffffffffffffffff1673ffffffffffffffffffffffffffffffffffffffff16815260200190815260200160002060008373ffffffffffffffffffffffffffffffffffffffff1673ffffffffffffffffffffffffffffffffffffffff16815260200190815260200160002054905092915050565b61071b61093c565b600073ffffffffffffffffffffffffffffffffffffffff168173ffffffffffffffffffffffffffffffffffffffff160361078d5760006040517f1e4fbdf700000000000000000000000000000000000000000000000000000000815260040161078491906111b8565b60405180910390fd5b61079681610a45565b50565b600033905090565b6107ae8383836001610b0b565b505050565b60006107bf848461068c565b90507fffffffffffffffffffffffffffffffffffffffffffffffffffffffffffffffff8110156108425781811015610832578281836040517ffb8f41b2000000000000000000000000000000000000000000000000000000008152600401610829939291906112df565b60405180910390fd5b61084184848484036000610b0b565b5b50505050565b600073ffffffffffffffffffffffffffffffffffffffff168373ffffffffffffffffffffffffffffffffffffffff16036108ba5760006040517f96c6fd1e0000000000000000000000000000000000000000000000000000000081526004016108b191906111b8565b60405180910390fd5b600073ffffffffffffffffffffffffffffffffffffffff168273ffffffffffffffffffffffffffffffffffffffff160361092c5760006040517fec442f0500000000000000000000000000000000000000000000000000000000815260040161092391906111b8565b60405180910390fd5b610937838383610ce2565b505050565b610944610799565b73ffffffffffffffffffffffffffffffffffffffff166109626105ad565b73ffffffffffffffffffffffffffffffffffffffff16146109c157610985610799565b6040517f118cdaa70000000000000000000000000000000000000000000000000000000081526004016109b891906111b8565b60405180910390fd5b565b600073ffffffffffffffffffffffffffffffffffffffff168273ffffffffffffffffffffffffffffffffffffffff1603610a355760006040517fec442f05000000000000000000000000000000000000000000000000000000008152600401610a2c91906111b8565b60405180910390fd5b610a4160008383610ce2565b5050565b6000600560009054906101000a900473ffffffffffffffffffffffffffffffffffffffff16905081600560006101000a81548173ffffffffffffffffffffffffffffffffffffffff021916908373ffffffffffffffffffffffffffffffffffffffff1602179055508173ffffffffffffffffffffffffffffffffffffffff168173ffffffffffffffffffffffffffffffffffffffff167f8be0079c531659141344cd1fd0a4f28419497f9722a3daafe3b4186f6b6457e060405160405180910390a35050565b600073ffffffffffffffffffffffffffffffffffffffff168473ffffffffffffffffffffffffffffffffffffffff1603610b7d5760006040517fe602df05000000000000000000000000000000000000000000000000000000008152600401610b7491906111b8565b60405180910390fd5b600073ffffffffffffffffffffffffffffffffffffffff168373ffffffffffffffffffffffffffffffffffffffff1603610bef5760006040517f94280d62000000000000000000000000000000000000000000000000000000008152600401610be691906111b8565b60405180910390fd5b81600160008673ffffffffffffffffffffffffffffffffffffffff1673ffffffffffffffffffffffffffffffffffffffff16815260200190815260200160002060008573ffffffffffffffffffffffffffffffffffffffff1673ffffffffffffffffffffffffffffffffffffffff168152602001908152602001600020819055508015610cdc578273ffffffffffffffffffffffffffffffffffffffff168473ffffffffffffffffffffffffffffffffffffffff167f8c5be1e5ebec7d5bd14f71427d1e84f3dd0314c0f7b2291e5b200ac8c7c3b92584604051610cd391906110d7565b60405180910390a35b50505050565b600073ffffffffffffffffffffffffffffffffffffffff168373ffffffffffffffffffffffffffffffffffffffff1603610d34578060026000828254610d289190611345565b92505081905550610e07565b60008060008573ffffffffffffffffffffffffffffffffffffffff1673ffffffffffffffffffffffffffffffffffffffff16815260200190815260200160002054905081811015610dc0578381836040517fe450d38c000000000000000000000000000000000000000000000000000000008152600401610db7939291906112df565b60405180910390fd5b8181036000808673ffffffffffffffffffffffffffffffffffffffff1673ffffffffffffffffffffffffffffffffffffffff16815260200190815260200160002081905550505b600073ffffffffffffffffffffffffffffffffffffffff168273ffffffffffffffffffffffffffffffffffffffff1603610e505780600260008282540392505081905550610e9d565b806000808473ffffffffffffffffffffffffffffffffffffffff1673ffffffffffffffffffffffffffffffffffffffff168152602001908152602001600020600082825401925050819055505b8173ffffffffffffffffffffffffffffffffffffffff168373ffffffffffffffffffffffffffffffffffffffff167fddf252ad1be2c89b69c2b068fc378daa952ba7f163c4a11628f55a4df523b3ef83604051610efa91906110d7565b60405180910390a3505050565b600081519050919050565b600082825260208201905092915050565b60005b83811015610f41578082015181840152602081019050610f26565b60008484015250505050565b6000601f19601f8301169050919050565b6000610f6982610f07565b610f738185610f12565b9350610f83818560208601610f23565b610f8c81610f4d565b840191505092915050565b60006020820190508181036000830152610fb18184610f5e565b905092915050565b600080fd5b600073ffffffffffffffffffffffffffffffffffffffff82169050919050565b6000610fe982610fbe565b9050919050565b610ff981610fde565b811461100457600080fd5b50565b60008135905061101681610ff0565b92915050565b6000819050919050565b61102f8161101c565b811461103a57600080fd5b50565b60008135905061104c81611026565b92915050565b6000806040838503121561106957611068610fb9565b5b600061107785828601611007565b92505060206110888582860161103d565b9150509250929050565b60008115159050919050565b6110a781611092565b82525050565b60006020820190506110c2600083018461109e565b92915050565b6110d18161101c565b82525050565b60006020820190506110ec60008301846110c8565b92915050565b60008060006060848603121561110b5761110a610fb9565b5b600061111986828701611007565b935050602061112a86828701611007565b925050604061113b8682870161103d565b9150509250925092565b60006020828403121561115b5761115a610fb9565b5b600061116984828501611007565b91505092915050565b600060ff82169050919050565b61118881611172565b82525050565b60006020820190506111a3600083018461117f565b92915050565b6111b281610fde565b82525050565b60006020820190506111cd60008301846111a9565b92915050565b600080604083850312156111ea576111e9610fb9565b5b60006111f885828601611007565b925050602061120985828601611007565b9150509250929050565b7f4e487b7100000000000000000000000000000000000000000000000000000000600052602260045260246000fd5b6000600282049050600182168061125a57607f821691505b60208210810361126d5761126c611213565b5b50919050565b7f4e6f7420546f6b656e53746f7265000000000000000000000000000000000000600082015250565b60006112a9600e83610f12565b91506112b482611273565b602082019050919050565b600060208201905081810360008301526112d88161129c565b9050919050565b60006060820190506112f460008301866111a9565b61130160208301856110c8565b61130e60408301846110c8565b949350505050565b7f4e487b7100000000000000000000000000000000000000000000000000000000600052601160045260246000fd5b60006113508261101c565b915061135b8361101c565b925082820190508082111561137357611372611316565b5b9291505056fea26469706673582212202657975469f1cac358fec47cfaa2ec03ffda0ce30290199fec8e720f828c739064736f6c63430008140033",
  "linkReferences": {},
  "deployedLinkReferences": {}
}