{
  "_format": "hh-sol-artifact-1",
  "contractName": "PlayGame",
  "sourceName": "contracts/PlayGame.sol",
  "abi": [
    {
      "inputs": [
        {
          "internalType": "address",
          "name": "gt_",
          "type": "address"
        }
      ],
      "stateMutability": "nonpayable",
      "type": "constructor"
    },
    {
      "inputs": [
        {
          "internalType": "address",
          "name": "owner",
          "type": "address"
        }
      ],
      "name": "OwnableInvalidOwner",
      "type": "error"
    },
    {
      "inputs": [
        {
          "internalType": "address",
          "name": "account",
          "type": "address"
        }
      ],
      "name": "OwnableUnauthorizedAccount",
      "type": "error"
    },
    {
      "inputs": [],
      "name": "ReentrancyGuardReentrantCall",
      "type": "error"
    },
    {
      "anonymous": false,
      "inputs": [
        {
          "indexed": false,
          "internalType": "bytes32",
          "name": "matchId",
          "type": "bytes32"
        },
        {
          "indexed": true,
          "internalType": "address",
          "name": "p1",
          "type": "address"
        },
        {
          "indexed": true,
          "internalType": "address",
          "name": "p2",
          "type": "address"
        },
        {
          "indexed": false,
          "internalType": "uint256",
          "name": "stake",
          "type": "uint256"
        }
      ],
      "name": "MatchCreated",
      "type": "event"
    },
    {
      "anonymous": false,
      "inputs": [
        {
          "indexed": true,
          "internalType": "address",
          "name": "previousOwner",
          "type": "address"
        },
        {
          "indexed": true,
          "internalType": "address",
          "name": "newOwner",
          "type": "address"
        }
      ],
      "name": "OwnershipTransferred",
      "type": "event"
    },
    {
      "anonymous": false,
      "inputs": [
        {
          "indexed": true,
          "internalType": "bytes32",
          "name": "matchId",
          "type": "bytes32"
        }
      ],
      "name": "Refunded",
      "type": "event"
    },
    {
      "anonymous": false,
      "inputs": [
        {
          "indexed": true,
          "internalType": "bytes32",
          "name": "matchId",
          "type": "bytes32"
        },
        {
          "indexed": true,
          "internalType": "address",
          "name": "winner",
          "type": "address"
        },
        {
          "indexed": false,
          "internalType": "uint256",
          "name": "amount",
          "type": "uint256"
        }
      ],
      "name": "Settled",
      "type": "event"
    },
    {
      "anonymous": false,
      "inputs": [
        {
          "indexed": true,
          "internalType": "bytes32",
          "name": "matchId",
          "type": "bytes32"
        },
        {
          "indexed": true,
          "internalType": "address",
          "name": "player",
          "type": "address"
        }
      ],
      "name": "Staked",
      "type": "event"
    },
    {
      "inputs": [
        {
          "internalType": "bytes32",
          "name": "id",
          "type": "bytes32"
        },
        {
          "internalType": "address",
          "name": "winner",
          "type": "address"
        }
      ],
      "name": "commitResult",
      "outputs": [],
      "stateMutability": "nonpayable",
      "type": "function"
    },
    {
      "inputs": [
        {
          "internalType": "bytes32",
          "name": "id",
          "type": "bytes32"
        },
        {
          "internalType": "address",
          "name": "p1",
          "type": "address"
        },
        {
          "internalType": "address",
          "name": "p2",
          "type": "address"
        },
        {
          "internalType": "uint256",
          "name": "stake_",
          "type": "uint256"
        }
      ],
      "name": "createMatch",
      "outputs": [],
      "stateMutability": "nonpayable",
      "type": "function"
    },
    {
      "inputs": [],
      "name": "gameToken",
      "outputs": [
        {
          "internalType": "contract IERC20",
          "name": "",
          "type": "address"
        }
      ],
      "stateMutability": "view",
      "type": "function"
    },
    {
      "inputs": [],
      "name": "operator",
      "outputs": [
        {
          "internalType": "address",
          "name": "",
          "type": "address"
        }
      ],
      "stateMutability": "view",
      "type": "function"
    },
    {
      "inputs": [],
      "name": "owner",
      "outputs": [
        {
          "internalType": "address",
          "name": "",
          "type": "address"
        }
      ],
      "stateMutability": "view",
      "type": "function"
    },
    {
      "inputs": [
        {
          "internalType": "bytes32",
          "name": "id",
          "type": "bytes32"
        }
      ],
      "name": "refund",
      "outputs": [],
      "stateMutability": "nonpayable",
      "type": "function"
    },
    {
      "inputs": [],
      "name": "renounceOwnership",
      "outputs": [],
      "stateMutability": "nonpayable",
      "type": "function"
    },
    {
      "inputs": [
        {
          "internalType": "address",
          "name": "op_",
          "type": "address"
        }
      ],
      "name": "setOperator",
      "outputs": [],
      "stateMutability": "nonpayable",
      "type": "function"
    },
    {
      "inputs": [
        {
          "internalType": "bytes32",
          "name": "id",
          "type": "bytes32"
        }
      ],
      "name": "stake",
      "outputs": [],
      "stateMutability": "nonpayable",
      "type": "function"
    },
    {
      "inputs": [],
      "name": "timeout",
      "outputs": [
        {
          "internalType": "uint256",
          "name": "",
          "type": "uint256"
        }
      ],
      "stateMutability": "view",
      "type": "function"
    },
    {
      "inputs": [
        {
          "internalType": "address",
          "name": "newOwner",
          "type": "address"
        }
      ],
      "name": "transferOwnership",
      "outputs": [],
      "stateMutability": "nonpayable",
      "type": "function"
    }
  ],
  "bytecode": "0x6080604052620151806004553480156200001857600080fd5b5060405162001bbc38038062001bbc83398181016040528101906200003e919062000243565b33600073ffffffffffffffffffffffffffffffffffffffff168173ffffffffffffffffffffffffffffffffffffffff1603620000b45760006040517f1e4fbdf7000000000000000000000000000000000000000000000000000000008152600401620000ab919062000286565b60405180910390fd5b620000c5816200011560201b60201c565b506001808190555080600260006101000a81548173ffffffffffffffffffffffffffffffffffffffff021916908373ffffffffffffffffffffffffffffffffffffffff16021790555050620002a3565b60008060009054906101000a900473ffffffffffffffffffffffffffffffffffffffff169050816000806101000a81548173ffffffffffffffffffffffffffffffffffffffff021916908373ffffffffffffffffffffffffffffffffffffffff1602179055508173ffffffffffffffffffffffffffffffffffffffff168173ffffffffffffffffffffffffffffffffffffffff167f8be0079c531659141344cd1fd0a4f28419497f9722a3daafe3b4186f6b6457e060405160405180910390a35050565b600080fd5b600073ffffffffffffffffffffffffffffffffffffffff82169050919050565b60006200020b82620001de565b9050919050565b6200021d81620001fe565b81146200022957600080fd5b50565b6000815190506200023d8162000212565b92915050565b6000602082840312156200025c576200025b620001d9565b5b60006200026c848285016200022c565b91505092915050565b6200028081620001fe565b82525050565b60006020820190506200029d600083018462000275565b92915050565b61190980620002b36000396000f3fe608060405234801561001057600080fd5b50600436106100a95760003560e01c80637249fbb6116100715780637249fbb61461012c5780638da5cb5b14610148578063b3ab15fb14610166578063c0d64a8714610182578063c3dfdae61461019e578063f2fde38b146101bc576100a9565b8063270ab7f5146100ae5780633acb3700146100ca578063570ca735146100e657806370dea79a14610104578063715018a614610122575b600080fd5b6100c860048036038101906100c391906111f8565b6101d8565b005b6100e460048036038101906100df919061126e565b61052b565b005b6100ee6106ec565b6040516100fb91906112e4565b60405180910390f35b61010c610712565b604051610119919061130e565b60405180910390f35b61012a610718565b005b61014660048036038101906101419190611329565b61072c565b005b610150610a0f565b60405161015d91906112e4565b60405180910390f35b610180600480360381019061017b9190611356565b610a38565b005b61019c60048036038101906101979190611329565b610a84565b005b6101a6610f11565b6040516101b391906113e2565b60405180910390f35b6101d660048036038101906101d19190611356565b610f37565b005b6101e0610fbd565b6000600560008481526020019081526020016000209050600360009054906101000a900473ffffffffffffffffffffffffffffffffffffffff1673ffffffffffffffffffffffffffffffffffffffff163373ffffffffffffffffffffffffffffffffffffffff1614610287576040517f08c379a000000000000000000000000000000000000000000000000000000000815260040161027e9061145a565b60405180910390fd5b6002600481111561029b5761029a61147a565b5b8160040160009054906101000a900460ff1660048111156102bf576102be61147a565b5b146102ff576040517f08c379a00000000000000000000000000000000000000000000000000000000081526004016102f6906114f5565b60405180910390fd5b8060000160009054906101000a900473ffffffffffffffffffffffffffffffffffffffff1673ffffffffffffffffffffffffffffffffffffffff168273ffffffffffffffffffffffffffffffffffffffff1614806103ac57508060010160009054906101000a900473ffffffffffffffffffffffffffffffffffffffff1673ffffffffffffffffffffffffffffffffffffffff168273ffffffffffffffffffffffffffffffffffffffff16145b6103eb576040517f08c379a00000000000000000000000000000000000000000000000000000000081526004016103e290611561565b60405180910390fd5b60038160040160006101000a81548160ff021916908360048111156104135761041261147a565b5b021790555060006002826002015461042b91906115b0565b9050600260009054906101000a900473ffffffffffffffffffffffffffffffffffffffff1673ffffffffffffffffffffffffffffffffffffffff1663a9059cbb84836040518363ffffffff1660e01b815260040161048a9291906115f2565b6020604051808303816000875af11580156104a9573d6000803e3d6000fd5b505050506040513d601f19601f820116820180604052508101906104cd9190611653565b508273ffffffffffffffffffffffffffffffffffffffff16847f16cfaad9ef877ffdcfedd9eae2009b4d27454094546f8fab5fbb10129037afc883604051610515919061130e565b60405180910390a35050610527611003565b5050565b61053361100c565b60006005600086815260200190815260200160002090506000600481111561055e5761055d61147a565b5b8160040160009054906101000a900460ff1660048111156105825761058161147a565b5b146105c2576040517f08c379a00000000000000000000000000000000000000000000000000000000081526004016105b9906116cc565b60405180910390fd5b838160000160006101000a81548173ffffffffffffffffffffffffffffffffffffffff021916908373ffffffffffffffffffffffffffffffffffffffff160217905550828160010160006101000a81548173ffffffffffffffffffffffffffffffffffffffff021916908373ffffffffffffffffffffffffffffffffffffffff16021790555081816002018190555060018160040160006101000a81548160ff021916908360048111156106795761067861147a565b5b02179055508273ffffffffffffffffffffffffffffffffffffffff168473ffffffffffffffffffffffffffffffffffffffff167f4becde1621d018f3c4630cadb81bbd72061cd951ebaab5e8b10d5b2fecfa49ce87856040516106dd9291906116fb565b60405180910390a35050505050565b600360009054906101000a900473ffffffffffffffffffffffffffffffffffffffff1681565b60045481565b61072061100c565b61072a6000611093565b565b610734610fbd565b60006005600083815260200190815260200160002090506002600481111561075f5761075e61147a565b5b8160040160009054906101000a900460ff1660048111156107835761078261147a565b5b146107c3576040517f08c379a00000000000000000000000000000000000000000000000000000000081526004016107ba906114f5565b60405180910390fd5b60045481600301546107d59190611724565b421015610817576040517f08c379a000000000000000000000000000000000000000000000000000000000815260040161080e906117a4565b60405180910390fd5b60048160040160006101000a81548160ff0219169083600481111561083f5761083e61147a565b5b0217905550600260009054906101000a900473ffffffffffffffffffffffffffffffffffffffff1673ffffffffffffffffffffffffffffffffffffffff1663a9059cbb8260000160009054906101000a900473ffffffffffffffffffffffffffffffffffffffff1683600201546040518363ffffffff1660e01b81526004016108c99291906115f2565b6020604051808303816000875af11580156108e8573d6000803e3d6000fd5b505050506040513d601f19601f8201168201806040525081019061090c9190611653565b50600260009054906101000a900473ffffffffffffffffffffffffffffffffffffffff1673ffffffffffffffffffffffffffffffffffffffff1663a9059cbb8260010160009054906101000a900473ffffffffffffffffffffffffffffffffffffffff1683600201546040518363ffffffff1660e01b81526004016109929291906115f2565b6020604051808303816000875af11580156109b1573d6000803e3d6000fd5b505050506040513d601f19601f820116820180604052508101906109d59190611653565b50817ffe509803c09416b28ff3d8f690c8b0c61462a892c46d5430c8fb20abe472daf060405160405180910390a250610a0c611003565b50565b60008060009054906101000a900473ffffffffffffffffffffffffffffffffffffffff16905090565b610a4061100c565b80600360006101000a81548173ffffffffffffffffffffffffffffffffffffffff021916908373ffffffffffffffffffffffffffffffffffffffff16021790555050565b610a8c610fbd565b600060056000838152602001908152602001600020905060016004811115610ab757610ab661147a565b5b8160040160009054906101000a900460ff166004811115610adb57610ada61147a565b5b14610b1b576040517f08c379a0000000000000000000000000000000000000000000000000000000008152600401610b12906114f5565b60405180910390fd5b8060000160009054906101000a900473ffffffffffffffffffffffffffffffffffffffff1673ffffffffffffffffffffffffffffffffffffffff163373ffffffffffffffffffffffffffffffffffffffff161480610bc857508060010160009054906101000a900473ffffffffffffffffffffffffffffffffffffffff1673ffffffffffffffffffffffffffffffffffffffff163373ffffffffffffffffffffffffffffffffffffffff16145b610c07576040517f08c379a0000000000000000000000000000000000000000000000000000000008152600401610bfe90611810565b60405180910390fd5b8060050160003373ffffffffffffffffffffffffffffffffffffffff1673ffffffffffffffffffffffffffffffffffffffff16815260200190815260200160002060009054906101000a900460ff1615610c96576040517f08c379a0000000000000000000000000000000000000000000000000000000008152600401610c8d9061187c565b60405180910390fd5b600260009054906101000a900473ffffffffffffffffffffffffffffffffffffffff1673ffffffffffffffffffffffffffffffffffffffff166323b872dd333084600201546040518463ffffffff1660e01b8152600401610cf99392919061189c565b6020604051808303816000875af1158015610d18573d6000803e3d6000fd5b505050506040513d601f19601f82011682018060405250810190610d3c9190611653565b5060018160050160003373ffffffffffffffffffffffffffffffffffffffff1673ffffffffffffffffffffffffffffffffffffffff16815260200190815260200160002060006101000a81548160ff0219169083151502179055503373ffffffffffffffffffffffffffffffffffffffff16827f33569fabfdaac29b9fcc05f7e8d37b389e8b2ba4379fcefefb7a8883d860b45a60405160405180910390a38060050160008260000160009054906101000a900473ffffffffffffffffffffffffffffffffffffffff1673ffffffffffffffffffffffffffffffffffffffff1673ffffffffffffffffffffffffffffffffffffffff16815260200190815260200160002060009054906101000a900460ff168015610ec957508060050160008260010160009054906101000a900473ffffffffffffffffffffffffffffffffffffffff1673ffffffffffffffffffffffffffffffffffffffff1673ffffffffffffffffffffffffffffffffffffffff16815260200190815260200160002060009054906101000a900460ff165b15610f055760028160040160006101000a81548160ff02191690836004811115610ef657610ef561147a565b5b02179055504281600301819055505b50610f0e611003565b50565b600260009054906101000a900473ffffffffffffffffffffffffffffffffffffffff1681565b610f3f61100c565b600073ffffffffffffffffffffffffffffffffffffffff168173ffffffffffffffffffffffffffffffffffffffff1603610fb15760006040517f1e4fbdf7000000000000000000000000000000000000000000000000000000008152600401610fa891906112e4565b60405180910390fd5b610fba81611093565b50565b600260015403610ff9576040517f3ee5aeb500000000000000000000000000000000000000000000000000000000815260040160405180910390fd5b6002600181905550565b60018081905550565b611014611157565b73ffffffffffffffffffffffffffffffffffffffff16611032610a0f565b73ffffffffffffffffffffffffffffffffffffffff161461109157611055611157565b6040517f118cdaa700000000000000000000000000000000000000000000000000000000815260040161108891906112e4565b60405180910390fd5b565b60008060009054906101000a900473ffffffffffffffffffffffffffffffffffffffff169050816000806101000a81548173ffffffffffffffffffffffffffffffffffffffff021916908373ffffffffffffffffffffffffffffffffffffffff1602179055508173ffffffffffffffffffffffffffffffffffffffff168173ffffffffffffffffffffffffffffffffffffffff167f8be0079c531659141344cd1fd0a4f28419497f9722a3daafe3b4186f6b6457e060405160405180910390a35050565b600033905090565b600080fd5b6000819050919050565b61117781611164565b811461118257600080fd5b50565b6000813590506111948161116e565b92915050565b600073ffffffffffffffffffffffffffffffffffffffff82169050919050565b60006111c58261119a565b9050919050565b6111d5816111ba565b81146111e057600080fd5b50565b6000813590506111f2816111cc565b92915050565b6000806040838503121561120f5761120e61115f565b5b600061121d85828601611185565b925050602061122e858286016111e3565b9150509250929050565b6000819050919050565b61124b81611238565b811461125657600080fd5b50565b60008135905061126881611242565b92915050565b600080600080608085870312156112885761128761115f565b5b600061129687828801611185565b94505060206112a7878288016111e3565b93505060406112b8878288016111e3565b92505060606112c987828801611259565b91505092959194509250565b6112de816111ba565b82525050565b60006020820190506112f960008301846112d5565b92915050565b61130881611238565b82525050565b600060208201905061132360008301846112ff565b92915050565b60006020828403121561133f5761133e61115f565b5b600061134d84828501611185565b91505092915050565b60006020828403121561136c5761136b61115f565b5b600061137a848285016111e3565b91505092915050565b6000819050919050565b60006113a86113a361139e8461119a565b611383565b61119a565b9050919050565b60006113ba8261138d565b9050919050565b60006113cc826113af565b9050919050565b6113dc816113c1565b82525050565b60006020820190506113f760008301846113d3565b92915050565b600082825260208201905092915050565b7f4e6f74206f70657261746f720000000000000000000000000000000000000000600082015250565b6000611444600c836113fd565b915061144f8261140e565b602082019050919050565b6000602082019050818103600083015261147381611437565b9050919050565b7f4e487b7100000000000000000000000000000000000000000000000000000000600052602160045260246000fd5b7f4261642073746174757300000000000000000000000000000000000000000000600082015250565b60006114df600a836113fd565b91506114ea826114a9565b602082019050919050565b6000602082019050818103600083015261150e816114d2565b9050919050565b7f496e76616c69642077696e6e6572000000000000000000000000000000000000600082015250565b600061154b600e836113fd565b915061155682611515565b602082019050919050565b6000602082019050818103600083015261157a8161153e565b9050919050565b7f4e487b7100000000000000000000000000000000000000000000000000000000600052601160045260246000fd5b60006115bb82611238565b91506115c683611238565b92508282026115d481611238565b915082820484148315176115eb576115ea611581565b5b5092915050565b600060408201905061160760008301856112d5565b61161460208301846112ff565b9392505050565b60008115159050919050565b6116308161161b565b811461163b57600080fd5b50565b60008151905061164d81611627565b92915050565b6000602082840312156116695761166861115f565b5b60006116778482850161163e565b91505092915050565b7f4578697374730000000000000000000000000000000000000000000000000000600082015250565b60006116b66006836113fd565b91506116c182611680565b602082019050919050565b600060208201905081810360008301526116e5816116a9565b9050919050565b6116f581611164565b82525050565b600060408201905061171060008301856116ec565b61171d60208301846112ff565b9392505050565b600061172f82611238565b915061173a83611238565b925082820190508082111561175257611751611581565b5b92915050565b7f4e6f2074696d656f757400000000000000000000000000000000000000000000600082015250565b600061178e600a836113fd565b915061179982611758565b602082019050919050565b600060208201905081810360008301526117bd81611781565b9050919050565b7f4e6f7420706c6179657200000000000000000000000000000000000000000000600082015250565b60006117fa600a836113fd565b9150611805826117c4565b602082019050919050565b60006020820190508181036000830152611829816117ed565b9050919050565b7f416c7265616479207374616b6564000000000000000000000000000000000000600082015250565b6000611866600e836113fd565b915061187182611830565b602082019050919050565b6000602082019050818103600083015261189581611859565b9050919050565b60006060820190506118b160008301866112d5565b6118be60208301856112d5565b6118cb60408301846112ff565b94935050505056fea2646970667358221220ddd225b4b6cf754a9f9f68986da493ce9228f4ff21f12eb48c0f2fc67daad89364736f6c63430008140033",
  "linkReferences": {},
  "deployedLinkReferences": {}
}