{
  "_format": "hh-sol-artifact-1",
  "contractName": "TokenStore",
  "sourceName": "contracts/TokenStore.sol",
  "abi": [
    {
      "inputs": [
        {
          "internalType": "address",
          "name": "usdt_",
          "type": "address"
        },
        {
          "internalType": "address",
          "name": "gameToken_",
          "type": "address"
        },
        {
          "internalType": "uint256",
          "name": "rate_",
          "type": "uint256"
        }
      ],
      "stateMutability": "nonpayable",
      "type": "constructor"
    },
    {
      "inputs": [
        {
          "internalType": "address",
          "name": "owner",
          "type": "address"
        }
      ],
      "name": "OwnableInvalidOwner",
      "type": "error"
    },
    {
      "inputs": [
        {
          "internalType": "address",
          "name": "account",
          "type": "address"
        }
      ],
      "name": "OwnableUnauthorizedAccount",
      "type": "error"
    },
    {
      "inputs": [],
      "name": "ReentrancyGuardReentrantCall",
      "type": "error"
    },
    {
      "anonymous": false,
      "inputs": [
        {
          "indexed": true,
          "internalType": "address",
          "name": "previousOwner",
          "type": "address"
        },
        {
          "indexed": true,
          "internalType": "address",
          "name": "newOwner",
          "type": "address"
        }
      ],
      "name": "OwnershipTransferred",
      "type": "event"
    },
    {
      "anonymous": false,
      "inputs": [
        {
          "indexed": true,
          "internalType": "address",
          "name": "buyer",
          "type": "address"
        },
        {
          "indexed": false,
          "internalType": "uint256",
          "name": "usdtAmount",
          "type": "uint256"
        },
        {
          "indexed": false,
          "internalType": "uint256",
          "name": "gtOut",
          "type": "uint256"
        }
      ],
      "name": "Purchase",
      "type": "event"
    },
    {
      "anonymous": false,
      "inputs": [
        {
          "indexed": true,
          "internalType": "address",
          "name": "to",
          "type": "address"
        },
        {
          "indexed": false,
          "internalType": "uint256",
          "name": "amount",
          "type": "uint256"
        }
      ],
      "name": "USDTWithdrawn",
      "type": "event"
    },
    {
      "inputs": [
        {
          "internalType": "uint256",
          "name": "usdtAmount",
          "type": "uint256"
        }
      ],
      "name": "buy",
      "outputs": [],
      "stateMutability": "nonpayable",
      "type": "function"
    },
    {
      "inputs": [],
      "name": "gameToken",
      "outputs": [
        {
          "internalType": "contract GameToken",
          "name": "",
          "type": "address"
        }
      ],
      "stateMutability": "view",
      "type": "function"
    },
    {
      "inputs": [],
      "name": "gtPerUsdt",
      "outputs": [
        {
          "internalType": "uint256",
          "name": "",
          "type": "uint256"
        }
      ],
      "stateMutability": "view",
      "type": "function"
    },
    {
      "inputs": [],
      "name": "owner",
      "outputs": [
        {
          "internalType": "address",
          "name": "",
          "type": "address"
        }
      ],
      "stateMutability": "view",
      "type": "function"
    },
    {
      "inputs": [],
      "name": "renounceOwnership",
      "outputs": [],
      "stateMutability": "nonpayable",
      "type": "function"
    },
    {
      "inputs": [
        {
          "internalType": "address",
          "name": "newOwner",
          "type": "address"
        }
      ],
      "name": "transferOwnership",
      "outputs": [],
      "stateMutability": "nonpayable",
      "type": "function"
    },
    {
      "inputs": [],
      "name": "usdt",
      "outputs": [
        {
          "internalType": "contract IERC20",
          "name": "",
          "type": "address"
        }
      ],
      "stateMutability": "view",
      "type": "function"
    },
    {
      "inputs": [
        {
          "internalType": "address",
          "name": "to",
          "type": "address"
        },
        {
          "internalType": "uint256",
          "name": "amount",
          "type": "uint256"
        }
      ],
      "name": "withdrawUSDT",
      "outputs": [],
      "stateMutability": "nonpayable",
      "type": "function"
    }
  ],
  "bytecode": "0x60806040523480156200001157600080fd5b5060405162000f1838038062000f188339818101604052810190620000379190620002c1565b33600073ffffffffffffffffffffffffffffffffffffffff168173ffffffffffffffffffffffffffffffffffffffff1603620000ad5760006040517f1e4fbdf7000000000000000000000000000000000000000000000000000000008152600401620000a491906200032e565b60405180910390fd5b620000be816200015860201b60201c565b506001808190555082600260006101000a81548173ffffffffffffffffffffffffffffffffffffffff021916908373ffffffffffffffffffffffffffffffffffffffff16021790555081600360006101000a81548173ffffffffffffffffffffffffffffffffffffffff021916908373ffffffffffffffffffffffffffffffffffffffff160217905550806004819055505050506200034b565b60008060009054906101000a900473ffffffffffffffffffffffffffffffffffffffff169050816000806101000a81548173ffffffffffffffffffffffffffffffffffffffff021916908373ffffffffffffffffffffffffffffffffffffffff1602179055508173ffffffffffffffffffffffffffffffffffffffff168173ffffffffffffffffffffffffffffffffffffffff167f8be0079c531659141344cd1fd0a4f28419497f9722a3daafe3b4186f6b6457e060405160405180910390a35050565b600080fd5b600073ffffffffffffffffffffffffffffffffffffffff82169050919050565b60006200024e8262000221565b9050919050565b620002608162000241565b81146200026c57600080fd5b50565b600081519050620002808162000255565b92915050565b6000819050919050565b6200029b8162000286565b8114620002a757600080fd5b50565b600081519050620002bb8162000290565b92915050565b600080600060608486031215620002dd57620002dc6200021c565b5b6000620002ed868287016200026f565b935050602062000300868287016200026f565b92505060406200031386828701620002aa565b9150509250925092565b620003288162000241565b82525050565b60006020820190506200034560008301846200031d565b92915050565b610bbd806200035b6000396000f3fe608060405234801561001057600080fd5b50600436106100885760003560e01c8063c3dfdae61161005b578063c3dfdae6146100ef578063d96a094a1461010d578063f2fde38b14610129578063f5243bfd1461014557610088565b80631481794e1461008d5780632f48ab7d146100a9578063715018a6146100c75780638da5cb5b146100d1575b600080fd5b6100a760048036038101906100a291906107a7565b610163565b005b6100b161025e565b6040516100be9190610846565b60405180910390f35b6100cf610284565b005b6100d9610298565b6040516100e69190610870565b60405180910390f35b6100f76102c1565b60405161010491906108ac565b60405180910390f35b610127600480360381019061012291906108c7565b6102e7565b005b610143600480360381019061013e91906108f4565b6104e0565b005b61014d610566565b60405161015a9190610930565b60405180910390f35b61016b61056c565b600260009054906101000a900473ffffffffffffffffffffffffffffffffffffffff1673ffffffffffffffffffffffffffffffffffffffff1663a9059cbb83836040518363ffffffff1660e01b81526004016101c892919061094b565b6020604051808303816000875af11580156101e7573d6000803e3d6000fd5b505050506040513d601f19601f8201168201806040525081019061020b91906109ac565b508173ffffffffffffffffffffffffffffffffffffffff167fb0bd88cdae83f74f918eb6bf26d99dcb3c1530530f339233b029e3b6a00ac50b826040516102529190610930565b60405180910390a25050565b600260009054906101000a900473ffffffffffffffffffffffffffffffffffffffff1681565b61028c61056c565b61029660006105f3565b565b60008060009054906101000a900473ffffffffffffffffffffffffffffffffffffffff16905090565b600360009054906101000a900473ffffffffffffffffffffffffffffffffffffffff1681565b6102ef6106b7565b60008111610332576040517f08c379a000000000000000000000000000000000000000000000000000000000815260040161032990610a36565b60405180910390fd5b600260009054906101000a900473ffffffffffffffffffffffffffffffffffffffff1673ffffffffffffffffffffffffffffffffffffffff166323b872dd3330846040518463ffffffff1660e01b815260040161039193929190610a56565b6020604051808303816000875af11580156103b0573d6000803e3d6000fd5b505050506040513d601f19601f820116820180604052508101906103d491906109ac565b506000620f4240600454836103e99190610abc565b6103f39190610b2d565b9050600360009054906101000a900473ffffffffffffffffffffffffffffffffffffffff1673ffffffffffffffffffffffffffffffffffffffff166340c10f1933836040518363ffffffff1660e01b815260040161045292919061094b565b600060405180830381600087803b15801561046c57600080fd5b505af1158015610480573d6000803e3d6000fd5b505050503373ffffffffffffffffffffffffffffffffffffffff167f12cb4648cf3058b17ceeb33e579f8b0bc269fe0843f3900b8e24b6c54871703c83836040516104cc929190610b5e565b60405180910390a2506104dd6106fd565b50565b6104e861056c565b600073ffffffffffffffffffffffffffffffffffffffff168173ffffffffffffffffffffffffffffffffffffffff160361055a5760006040517f1e4fbdf70000000000000000000000000000000000000000000000000000000081526004016105519190610870565b60405180910390fd5b610563816105f3565b50565b60045481565b610574610706565b73ffffffffffffffffffffffffffffffffffffffff16610592610298565b73ffffffffffffffffffffffffffffffffffffffff16146105f1576105b5610706565b6040517f118cdaa70000000000000000000000000000000000000000000000000000000081526004016105e89190610870565b60405180910390fd5b565b60008060009054906101000a900473ffffffffffffffffffffffffffffffffffffffff169050816000806101000a81548173ffffffffffffffffffffffffffffffffffffffff021916908373ffffffffffffffffffffffffffffffffffffffff1602179055508173ffffffffffffffffffffffffffffffffffffffff168173ffffffffffffffffffffffffffffffffffffffff167f8be0079c531659141344cd1fd0a4f28419497f9722a3daafe3b4186f6b6457e060405160405180910390a35050565b6002600154036106f3576040517f3ee5aeb500000000000000000000000000000000000000000000000000000000815260040160405180910390fd5b6002600181905550565b60018081905550565b600033905090565b600080fd5b600073ffffffffffffffffffffffffffffffffffffffff82169050919050565b600061073e82610713565b9050919050565b61074e81610733565b811461075957600080fd5b50565b60008135905061076b81610745565b92915050565b6000819050919050565b61078481610771565b811461078f57600080fd5b50565b6000813590506107a18161077b565b92915050565b600080604083850312156107be576107bd61070e565b5b60006107cc8582860161075c565b92505060206107dd85828601610792565b9150509250929050565b6000819050919050565b600061080c61080761080284610713565b6107e7565b610713565b9050919050565b600061081e826107f1565b9050919050565b600061083082610813565b9050919050565b61084081610825565b82525050565b600060208201905061085b6000830184610837565b92915050565b61086a81610733565b82525050565b60006020820190506108856000830184610861565b92915050565b600061089682610813565b9050919050565b6108a68161088b565b82525050565b60006020820190506108c1600083018461089d565b92915050565b6000602082840312156108dd576108dc61070e565b5b60006108eb84828501610792565b91505092915050565b60006020828403121561090a5761090961070e565b5b60006109188482850161075c565b91505092915050565b61092a81610771565b82525050565b60006020820190506109456000830184610921565b92915050565b60006040820190506109606000830185610861565b61096d6020830184610921565b9392505050565b60008115159050919050565b61098981610974565b811461099457600080fd5b50565b6000815190506109a681610980565b92915050565b6000602082840312156109c2576109c161070e565b5b60006109d084828501610997565b91505092915050565b600082825260208201905092915050565b7f5a65726f20616d6f756e74000000000000000000000000000000000000000000600082015250565b6000610a20600b836109d9565b9150610a2b826109ea565b602082019050919050565b60006020820190508181036000830152610a4f81610a13565b9050919050565b6000606082019050610a6b6000830186610861565b610a786020830185610861565b610a856040830184610921565b949350505050565b7f4e487b7100000000000000000000000000000000000000000000000000000000600052601160045260246000fd5b6000610ac782610771565b9150610ad283610771565b9250828202610ae081610771565b91508282048414831517610af757610af6610a8d565b5b5092915050565b7f4e487b7100000000000000000000000000000000000000000000000000000000600052601260045260246000fd5b6000610b3882610771565b9150610b4383610771565b925082610b5357610b52610afe565b5b828204905092915050565b6000604082019050610b736000830185610921565b610b806020830184610921565b939250505056fea26469706673582212207fb4de956a1b0558f5d4d8e2851c662eacd1b56df857c0c6bd410efd8daaf3a664736f6c63430008140033",
  "linkReferences": {},
  "deployedLinkReferences": {}
}